:100000000C947D010C94AE010C94AE010C94AE01E5
:100010000C94AE010C94AE010C94AE010C94AE01A4
:100020000C94AE010C94AE010C94AE010C94AE0194
:100030000C94AE010C94AE010C94AE010C94AE0184
:100040000C94AE010C94AE010C94AE010C94AE0174
:100050000C949B0D0C94AE010C94AE010C94310CDD
:100060000C94AE010C94FB0B0C94D10B0C94AE01D0
:100070000C94AE010C94AE010C94AE010C94AE0144
:100080000C94AE010C94AE010C94AE010C94AE0134
:100090000C94AE010C94AE010C94AE010C947B0C4C
:1000A0000C94AE010C94AE010C94AE010C94AE0114
:1000B0000C94AE010C94AE010C94AE010C94AE0104
:1000C0000C94AE010C94AE010C94AE010C94AE01F4
:1000D0000C94AE010C94AE010C94AE010C94AE01E4
:1000E0000C94AE010C945D060C9457030C94A10E75
:1000F0000C94B6040C94D5010C9472030C94620316
:100100000C9491060C9449060C945D050C947603AE
:100110000C9467050C9440020C945B130C940A0534
:100120000C9468050C943C030C9418050C945E0424
:100130000C944F020C947F060C9415050C945303F9
:100140000C9432050C949D060C945F030C941B05D3
:100150000C94C0070C9413020C946C030C94BD0314
:100160000C948E030C945B030C9492030C94810604
:100170000C9463020C94AF050C9483060C946803F2
:100180000C9437040C9441030C9420050C945306F2
:100190000C941E050C94CF040C9480030C948803DB
:1001A0000C9441070C9484030C947A050C94D806A3
:1001B0000C9475060C94B0010C9467060C945005D1
:1001C0000C948D060C943A040C949F020C949D049C
:1001D0000C94A5050C94A7060C9498050C94EC02BD
:1001E0000C947A030C9473060C9471020C94C90657
:1001F00000000A0B02090C0D0E08070304010000A1
:1002000000000000000000000000000000000000EE
:1002100000000000000000000000000012111000AB
:1002200000000000000000000000000000000000CE
:1002300000000000000000002200250028002B0024
:100240002E003100340002010000050108010B01FD
:1002500000002100240027002A002D003000330078
:1002600001010000040107010A0105050505070554
:1002700008080808020202020A0A08080404040422
:10028000010101010101010103030303030303034E
:10029000040707070C0C0C0C0C0C0C0C02020202DD
:1002A00006060606060606060B0B0B0B0B0B0B0BC6
:1002B0000102102020080810204010204080020178
:1002C000020108040201010204081020408080405D
:1002D000201008040201800402018040201008045C
:1002E00002010804020101020408102040800102FA
:1002F000040810204080A10E5B1311241FBECFEF15
:10030000D1E2DEBFCDBF00E00CBF13E0A0E0B2E061
:10031000E8E7FDE200E00BBF02C007900D92A430B9
:10032000B107D9F724E0A4E0B3E001C01D92A938D9
:10033000B207E1F711E0CCE7D1E000E006C0219779
:100340000109802FFE010E949916CB37D10780E06A
:100350000807A9F70E94AA0F0C94AA160C94000093
:100360001F93CF93DF93182FC0918203D091830303
:100370008A3041F4E881F9810190F081E02D6DE04F
:10038000CE011995E881F9810190F081E02D612F6E
:10039000CE01199521E030E0019711F430E020E022
:1003A000C901DF91CF911F910895CF93DF93C09141
:1003B0008203D0918303E881F9810084F185E02DE7
:1003C000CE011995892BB9F3E881F9810284F3856F
:1003D000E02DCE01DF91CF91199490E0FC01E05522
:1003E000FD4F249186599D4FFC018491882399F0FB
:1003F00090E0880F991FFC01E05BFD4FA591B4913F
:10040000FC01EA5CFD4F859194918FB7F894EC91D3
:10041000E22BEC938FBF0895DC01ED91FC910190EC
:10042000F081E02D1994AF92BF92CF92DF92EF92BC
:10043000FF920F931F93CF93DF936C017B018B018E
:10044000040F151FEB015E01AE18BF08C017D107DE
:1004500059F06991D601ED91FC910190F081E02D68
:10046000C6011995892B79F7C501DF91CF911F91AD
:100470000F91FF90EF90DF90CF90BF90AF900895D5
:10048000FC01538D448D252F30E0842F90E0821B9A
:10049000930B541710F0CF96089501970895FC011F
:1004A000918D828D981761F0A28DAE0FBF2FB11D77
:1004B0005D968C91928D9F5F9F73928F90E00895CF
:1004C0008FEF9FEF0895FC01918D828D981731F089
:1004D000828DE80FF11D858D90E008958FEF9FEFDD
:1004E0000895FC01918D228D892F90E0805C9F4FB3
:1004F000821B91098F7399270895FC01A48DA80F81
:10050000B92FB11DA35ABF4F2C91848D90E0019655
:100510008F739927848FA689B7892C93A089B18975
:100520008C91837080648C93938D848D981306C016
:100530000288F389E02D80818F7D80830895EF927A
:10054000FF920F931F93CF93DF93EC0181E0888F8D
:100550009B8D8C8D98131AC0E889F989808185FF5D
:1005600015C09FB7F894EE89FF896083E889F989FF
:1005700080818370806480839FBF81E090E0DF9101
:10058000CF911F910F91FF90EF900895F62E0B8D54
:1005900010E00F5F1F4F0F731127E02E8C8D8E110F
:1005A0000CC00FB607FCFACFE889F989808185FF76
:1005B000F5CFCE010E947D02F1CFEB8DEC0FFD2F28
:1005C000F11DE35AFF4FF0829FB7F8940B8FEA8931
:1005D000FB8980818062CFCFCF93DF93EC01888D40
:1005E0008823B9F0AA89BB89E889F9898C9185FDAE
:1005F00003C0808186FD0DC00FB607FCF7CF8C913C
:1006000085FFF2CF808185FFEDCFCE010E947D0274
:10061000E9CFDF91CF910895282F30E0F901E05123
:10062000FE4F9491F901E055FD4F449126593D4FFD
:10063000F9012491222309F435C0992311F1915035
:100640009231F8F4E92FF0E08827E65DFC4F8F4FF8
:100650000C9499165B035F033C0353035703410358
:10066000620368036C03720376037A0380038403D6
:10067000410388038E039203809180008F778093DB
:100680008000E22FF0E0EE0FFF1FEA5CFD4FA59126
:10069000B4918FB7F894EC91611148C040954E2306
:1006A0004C938FBF0895809180008F7DE8CF80911B
:1006B0008000877FE4CF84B58F7784BDE2CF84B597
:1006C0008F7DFBCF8091B0008F778093B000D9CF22
:1006D0008091B0008F7DF9CF809190008F778093CB
:1006E0009000CFCF809190008F7DF9CF80919000C6
:1006F000877FF5CF8091A0008F778093A000C1CF36
:100700008091A0008F7DF9CF8091A000877FF5CFE9
:10071000809120018F7780932001B3CF80912001B9
:100720008F7DF9CF80912001877FF5CF4E2BB8CFF9
:100730003FB7F89480917E0390917F03A09180034E
:10074000B091810326B5A89B05C02F3F19F00196F3
:10075000A11DB11D3FBFBA2FA92F982F8827BC011B
:10076000CD01620F711D811D911D42E0660F771F43
:10077000881F991F4A95D1F70895CB0108954F928C
:100780005F926F927F92BF92CF92DF92EF92FF9231
:100790000F931F93CF93DF93EC0129013A018B0153
:1007A000C12CD12C7601C414D504E604F7040CF056
:1007B0003FC0F801B1908F018F8580FF0BC0E881A9
:1007C000F9810084F185E02D20E144E070E060E0F3
:1007D000CE011995EB85FC858D859E85E817F90777
:1007E00060F4B0828B859C8501969C878B872FEF68
:1007F000C21AD20AE20AF20AD6CF6B2D70E0E88163
:10080000F981028CF38DE02DCE011995019679F7CF
:10081000C701B601DF91CF911F910F91FF90EF902B
:10082000DF90CF90BF907F906F905F904F90089532
:1008300073016201EDCFCF93DF93EC01E881F98181
:100840000288F389E02D19958F3F980731F02D81AB
:100850003E812F5F3F4F3E832D83DF91CF910895DF
:100860008FEF9FEF089560E070E0CB01089590E076
:1008700080E00895FF920F931F93CF93DF938C0135
:10088000EB016F3F7607B9F0F62EEAE06E1306C073
:100890006DE0F801808991890E940C026F2DF801AA
:1008A000808991890E940C02CE01DF91CF911F9126
:1008B0000F91FF900895D0E0C0E0F6CF7F928F9225
:1008C0009F92AF92BF92CF92DF92EF92FF920F93DF
:1008D0001F93CF93DF938C0149015A01EB01C12C87
:1008E000D12C7601C814D904EA04FB04B4F479903D
:1008F0008AE0781206C06DE0F801808991890E9433
:100900000C02672DF801808991890E940C02FFEF8B
:10091000CF1ADF0AEF0AFF0AE5CFC501B401DF9164
:10092000CF911F910F91FF90EF90DF90CF90BF90EC
:10093000AF909F908F907F900895CF93DF93EC01BD
:1009400088899989DC01ED91FC910084F185E02D85
:100950001995892BA9F388899989DC01ED91FC917E
:100960000284F385E02DDF91CF911994CF93DF932B
:10097000EC0188899989DC01ED91FC910084F18575
:10098000E02D1995892BA9F388899989DC01ED91CE
:10099000FC910484F585E02DDF91CF9119948F921D
:1009A0009F92AF92BF92CF92DF92EF92FF920F93FE
:1009B0001F93CF93DF938C0149015A01EB01C12CA6
:1009C000D12C7601D80150968D919C91DC01ED914E
:1009D000FC910284F385E02D19958F3F61F0C814D6
:1009E000D904EA04FB043CF48993BFEFCB1ADB0A79
:1009F000EB0AFB0AE7CFC701B601DF91CF911F9148
:100A00000F91FF90EF90DF90CF90BF90AF909F90AD
:100A10008F900895DC0150968D919C91DC01ED91B1
:100A2000FC910084F185E02D199490E080E0089518
:100A300090E080E0089590E080E0089508950895A2
:100A4000DC01ED91FC9136970190F081E02DE80FEB
:100A5000F91F84E992E0918380838EE992E0978385
:100A60008683089524E932E0FC01318320832EE956
:100A700032E0378326830895FB0120813181FC0118
:100A800031832083FB014281538126503109F901D2
:100A900020813181820F931FFC015183408308958F
:100AA00020EB32E0FC01318320832AEB32E0318FEE
:100AB000208F64EA72E00C943C05DC01ED91FC911E
:100AC000369720813181820F931F0C945005089531
:100AD000DC01ED91FC9136970190F081E02DE80F5B
:100AE000F91F80E892E0918380838AE892E0938303
:100AF0008283089520E832E0FC01318320832AE8D4
:100B000032E0338322830895FB0120813181FC018F
:100B100031832083FB014281538126503109F90141
:100B200020813181820F931FFC01518340830895FE
:100B30002CEC32E0FC013183208326ED32E0358B52
:100B4000248B60EC72E00C948405DC01ED91FC9147
:100B5000369720813181820F931F0C949805089558
:100B60000895E6E0E69F9001E79F300D1124FC0117
:100B7000A389B489A20FB31F86E0FA0101900D92F8
:100B80008A95E1F7089520912F03260F3327331F0D
:100B900021323105ECF420915303FC0190E080E018
:100BA000243069F082E00895A0912F032191AC01D7
:100BB000415F5C4FA40FB52FB11D2C930196861792
:100BC00098F380912F03680F60932F0380E00895BE
:100BD00081E0089508958FEF9FEF08958FEF9FEFC5
:100BE00008958091080390E0919581959109089569
:100BF000CF93DF93CB01EA01642F0E94C305CE019E
:100C0000DF91CF910895CF93DF931F92CDB7DEB7D9
:100C1000698361E0CE0101960E94C30581E090E006
:100C20000F90DF91CF910895EF92FF920F931F9352
:100C3000CF93DF93EC017B01FB01048115811D83C0
:100C40000C83C80108969B838A83880F991F0E9492
:100C5000CA1388839983FC0190E080E00817190784
:100C600089F09C01220F331F309749F0E701A881DA
:100C7000B981A20FB31F2D913C913183208301963E
:100C80003296ECCFDF91CF911F910F91FF90EF90B3
:100C90000895CF93DF93EC010E949805CE01DF9178
:100CA000CF910C946614DC01ED91FC913697208174
:100CB0003181820F931F0C944906CF93DF93EC018F
:100CC0000E945005CE01DF91CF910C946614DC0197
:100CD000ED91FC91369720813181820F931F0C9406
:100CE0005D060C9466140C946614DC01ED91FC9185
:100CF000369720813181820F931F0C9473060C94D8
:100D000066140C946614DC01ED91FC9136972081F9
:100D10003181820F931F0C9481060C9466140C94FD
:100D2000661428EF32E0FC013183208386859785A5
:100D3000009711F00C9466140895CF93DF93EC01A3
:100D40000E949106CE01DF91CF910C946614CF934F
:100D5000DF93EC0180E093E0998388838B899C8901
:100D6000009711F00E9466141C8A1B8A8E819F8155
:100D7000009711F00E9466141F821E828C859D854B
:100D8000009721F0DF91CF910C946614DF91CF9101
:100D90000895CF93DF93EC010E94A706CE01DF9167
:100DA000CF910C946614FC01808191810C9466149F
:100DB000EF92FF920F931F93CF93DF93EC0180EF9D
:100DC00092E09983888310E000E0F12CE12C8F857C
:100DD0009889E816F90670F4EB89FC89E00FF11F99
:100DE00061E080810E940C038FEFE81AF80A0A5F25
:100DF0001F4FEDCF89859A85009711F00E946614E8
:100E00008B859C85009711F00E9466148B899C89C4
:100E1000009711F00E9466148D899E89009711F049
:100E20000E9466148F89988D009711F00E946614B5
:100E30001A8619861C861B861C8A1B8A1E8A1D8A96
:100E4000188E1F8A188A1F8610E000E0F12CE12C12
:100E50008A819B812E813F81E216F30650F4800F38
:100E6000911F0E94D3068FEFE81AF80A095F1F4FFF
:100E7000EFCFDF91CF911F910F91FF90EF900C94E6
:100E80006614CF93DF93EC010E94D806CE01DF9168
:100E9000CF910C9466141F93CF93DF9385ED8093CD
:100EA000BC0080910B0390910C03A0910D03B091B5
:100EB0000E030796A11DB11D23E0B695A795979542
:100EC00087952A95D1F72091BC0024FD03C010928C
:100ED000530352C040910B0350910C0360910D03DA
:100EE00070910E03452B462B472B69F30097A10504
:100EF000B10541F025E32A95F1F700000197A1091A
:100F0000B109E1CF80910A03C1E0C09309038823AE
:100F100099F1D091B8001091BA008091BC008A7B01
:100F20008093BC0060E084E10E940C0360E085E1F6
:100F30000E940C0310925303C09355031092540364
:100F400061E084E10E940C0361E085E10E940C03F2
:100F50008091B9008E7F8093B9008091B9008D7F18
:100F60008093B90088E48093B80085E48093BC0046
:100F70001093BA00D093B800DF91CF911F910895DC
:100F80006F927F928F929F92AF92BF92CF92DF9299
:100F9000EF92FF920F931F93CF93DF9300D000D077
:100FA0001F92CDB7DEB700917D0410917E0484E2DC
:100FB000D80152968C9352978AE056968C93569706
:100FC0001E96ED90FC901F975096CD90DC90B3E06C
:100FD000CB0ED11CF7011186108690E080E0D7017E
:100FE00012962D913C9113978217930744F416960D
:100FF000ED91FC91E80FF91F10820196F0CF84EB80
:1010000093E00E9471028C159D050CF41FC184EBC6
:1010100093E00E947102F701A680B7804C018A0C10
:101020009B1CA814B90409F43DC02FB7F894809113
:101030007A0390917B03A0917C03B0917D032FBF35
:101040008093BC039093BD03A093BE03B093BF03F2
:1010500084EB93E00E944F0297FF9FC32FB7F89451
:1010600080917A0390917B03A0917C03B0917D03E2
:101070002FBF4091BC035091BD036091BE0370919E
:10108000BF03841B950BA60BB70B4091B80350917F
:10109000B9036091BA037091BB0384179507A60743
:1010A000B707B0F2D7011696ED91FC91808184329A
:1010B00009F0CCC0CE0EDF1ED60111979C919A305C
:1010C00009F0C4C0D80152968C935297BF016F5F4C
:1010D0007F4F50964D915C91519753968D919C9175
:1010E0000E94A116D7011696ED91FC91D801509659
:1010F0008D919C915197E80FF91F818155968C93A2
:101100005597828156968C93F7011186108690E050
:1011100080E0D70112962D913C9113978217930787
:1011200044F41696ED91FC91E80FF91F1082019698
:10113000F0CFF80182899689890F9927991F4089F4
:10114000518930E020E04217530761F0D8015396EF
:10115000ED91FC91E20FF31F6081860F911D2F5FCF
:101160003F4FF1CFF8019589981370C06389748956
:10117000868197810E94A116D80112968D909C902D
:1011800050E040E066E070E0F12CE12C8E149F040A
:1011900009F48CC0F80186819781A481B5813D0155
:1011A000640E751EFC01E60FF71FCF010597DC01E9
:1011B0002C910196DC018C91322F282FD3012D9395
:1011C0003C93CF010297DC019C916F01B1E0CB1AF7
:1011D000D108D6018C91D30113969C938E931297CC
:1011E000D180A280BD2C1596BC92AE9214976F014F
:1011F000B6E0CB1AD108D601DC90B0EFDB1206C006
:10120000319521953109D3012D933C939F012350B2
:101210003109D9012C91203F41F491958195910993
:10122000D30113969C938E9312978081803F31F463
:10123000B194A194B108F301B582A482FFEFEF1A33
:10124000FF0A675F7F4F4A5F5F4FA0CF8091040323
:10125000909105038B3091050CF445C100917D04FC
:1012600010917E04D80118964D915C91A0917B0459
:10127000B0917C0490E080E030E020E0421753071A
:1012800009F437C11B96ED91FC911C97E80FF91FEB
:1012900060817181F801E284F384F701E80FF91F9E
:1012A000718360832F5F3F4F0696E8CF88E090E020
:1012B0009C838B831E821D8280E190E00E94CA1372
:1012C0009A838983F12CE12CD12CC12CE0917D04EF
:1012D000F0917E0482819381C816D90608F059C026
:1012E0008D809E8084010F5F1F4F8016910608F04D
:1012F0004DC0A480B5802B813C812017310720F59B
:10130000C401099628173907F8F469807A809C830C
:101310008B83880F991F0E94CA1389839A83FC01CB
:10132000D30190E080E08816990659F0309729F0B3
:101330002D913C911197318320830196329612961C
:10134000F2CFC3010E9466148D819E819C01220F01
:10135000331FE981FA81E20FF31FD501AE0DBF1DE6
:101360008017910750F4309729F02D913C911197F7
:101370003183208301963296F3CF1E830D83BFEF16
:10138000CB1ADB0AE6E0EE0EF11CA0CF1E821D8216
:10139000F6CF00917B0410917C04D80116968D91B4
:1013A0009C916C01BFEFCB1ADB0A8C159D0508F0F0
:1013B00080C0F801248135812C153D05C0F50996C2
:1013C00028173907A0F5A280B3809583848327E08E
:1013D000AC01249FC001259F900D11240E94CA13C7
:1013E000D80113969C938E9312977501912C812CA2
:1013F000F8018681978188169906B0F482819381DD
:1014000097012A193B09820F931F009719F0B70122
:101410000E941406C7010E94D306FFEF8F1A9F0A8D
:1014200027E0E20EF11CE4CFC5010E946614D8014A
:101430001696ED90FC9087E08E9D50018F9DB00C2C
:101440001124EC14FD0498F4F801828193818A0D33
:101450009B1D009729F0BE016F5F7F4F0E9414060D
:10146000FFEFEF1AFF0A27E0A20EB11CEACFD80166
:101470001796DC92CE921697CE0101960E94D30663
:10148000109205031092040327960FB6F894DEBF5E
:101490000FBECDBFDF91CF911F910F91FF90EF90C5
:1014A000DF90CF90BF90AF909F908F907F906F9084
:1014B0000895F12CE12CD12CC12CF8018681978163
:1014C000C816D90668F4828193818E0D9F1D0E94F3
:1014D000D306FFEFCF1ADF0A27E0E20EF11CEDCFB3
:1014E00017821682C9CF0196909305038093040357
:1014F000CBCF84E2D80152968C9352978AE05696CD
:101500008C9386E090E030E020E0B0E0A0E04FE097
:10151000D42E50EFC52EF801648575854085518520
:10152000A417B50708F0C4C07C01F6E0EF1AF10873
:10153000680F791F65507109F80142855385420F84
:10154000531FFA014081518157FF03C051954195C6
:101550005109FB015083F80144855585FA01E80FD4
:10156000F91FBF0164507109F80142855385420F8C
:10157000531FFA014081518157FF03C05195419596
:101580005109FB014083F80144855585FA01E80FB4
:10159000F91FBF0162507109F80142855385420F5E
:1015A000531FFA014281538157FF03C05195419562
:1015B0005109FB015083F80144855585FA01E80F74
:1015C000F91FBF0161507109F80142855385420F2F
:1015D000531FFA014281538157FF03C05195419532
:1015E0005109FB014083F80164857585680F791FF7
:1015F00042855385420F531FFA014481558157FF9D
:1016000003C0519541955109FB015183F80164854F
:101610007585680F791F42855385420F531FFA0164
:101620004481558157FF03C0519541955109FB01F4
:101630004283F80142855385FA01E20FF31F60816E
:101640007181F801448555854E0D5F1DFA0177FFC4
:1016500029C0C082F80164857585AC0143505109E9
:10166000640F751F42855385420F531FFA01428153
:101670005381FB0157FF18C0C082F801648575854E
:10168000680F791F42855385420F531FFA01448129
:101690005581FB0157FF0AC0C08211962A5F3F4F58
:1016A000099639CFD082D6CFD082E7CFD082F5CF7E
:1016B00040895189838994890E94A116F801E684A2
:1016C000F784D7011B961C921E921A9790E080E037
:1016D000D7011496ED91FC91159712962D913C919E
:1016E000821793072CF4E80FF91F10820196F0CFB0
:1016F000D80152968C9152978083F701848195810D
:1017000053966D917C91549750964D915C910196B2
:101710000E94A116D80156968C91D7011496ED918E
:10172000FC91D80150962D913C915197E20FF31FF7
:10173000828352968C91529756969C915697890F18
:101740009927991F50964D915C9130E020E0241725
:1017500035075CF4F801A389B489A20FB31F6C911B
:10176000860F911D2F5F3F4FF2CFD80155968C9376
:10177000D7011496ED91FC911597E40FF51F818325
:10178000F801408951894D5F5F4F14966D917C91AE
:1017900084EB93E00E94130277CED5018D935D0117
:1017A00040CC1F920F920FB60F9211240BB60F92DE
:1017B0002F933F934F935F936F937F938F939F9359
:1017C000AF93BF93EF93FF9384EB93E00E947D026E
:1017D000FF91EF91BF91AF919F918F917F916F9109
:1017E0005F914F913F912F910F900BBE0F900FBEC5
:1017F0000F901F9018951F920F920FB60F92112401
:101800000BB60F922F938F939F93EF93FF93E091DB
:10181000C403F091C5038081E091CA03F091CB032A
:1018200082FD1DC090818091CD038F5F8F732091C9
:10183000CE03821741F0E091CD03F0E0EC54FC4F71
:10184000958F8093CD03FF91EF919F918F912F9171
:101850000F900BBE0F900FBE0F901F9018958081B8
:10186000F2CF1F920F920FB60F9211242F933F9336
:101870008F939F93AF93BF9380917A0390917B0353
:10188000A0917C03B0917D033091790323E0230F75
:101890002D3758F50196A11DB11D20937903809332
:1018A0007A0390937B03A0937C03B0937D03809194
:1018B0007E0390917F03A0918003B09181030196F4
:1018C000A11DB11D80937E0390937F03A09380039D
:1018D000B0938103BF91AF919F918F913F912F91D1
:1018E0000F900FBE0F901F90189526E8230F0296B9
:1018F000A11DB11DD2CF1F920F920FB60F921124CE
:101900000BB60F922F933F934F935F936F937F93F9
:101910008F939F93AF93BF93EF93FF938091B90001
:10192000887F803609F44DC008F040C0883209F441
:10193000A7C028F5803109F49BC0C8F4882309F4B6
:10194000F7C0883009F494C0FF91EF91BF91AF9137
:101950009F918F917F916F915F914F913F912F91C7
:101960000F900BBE0F900FBE0F901F9018958831EF
:1019700009F486C0803241F78093520314C080344A
:1019800009F49BC040F48033B9F38833E9F68093BF
:10199000520385ECAEC0803509F483C0883509F464
:1019A00094C0883489F60E944B07CECF883909F459
:1019B0008AC038F5883729F050F4883611F080371E
:1019C00019F683E0809353031092510355C0883871
:1019D00009F479C0803919F0803809F0B5CF8091C9
:1019E0005103803208F06FC0E091510381E08E0F07
:1019F000809351038091BB00F0E0EF5CFC4F80834B
:101A00003BC0803B39F0D0F4803A09F477C0883A83
:101A100009F09ACF84E08093530310923003109220
:101A20002F03F0E0E0E0199580912F0381110FC0A2
:101A300081E080932F0310920F0309C0803C09F4CA
:101A4000A8CF883C09F4A5CF883B09F07DCFE09171
:101A5000300381E08E0F80933003F0E0E15FFC4FB4
:101A600080818093BB009091300380912F0329C027
:101A7000809178038093BB0085EC8093BC0064CF99
:101A80009091770380917603981758F5E09177034A
:101A900081E08E0F80937703F0E0EA5AFC4F80815B
:101AA000E9CFE091770381E08E0F809377038091F7
:101AB000BB00F0E0EA5AFC4F80839091770380915D
:101AC00076039817C8F285E8D8CFE091770381E0D4
:101AD0008E0F809377038091BB00F0E0EA5AFC4FB1
:101AE00080838091550381115ECF81E08093540300
:101AF00084EA8093BC001092530326CF85EC809338
:101B0000BC001092530380915103803230F4E09175
:101B10005103F0E0EF5CFC4F10826091510370E0E4
:101B200081E393E0F0E0E0E01995109251030CCFCF
:101B30001092520338CF1F920F920FB60F921124BA
:101B40000BB60F922F933F934F935F936F937F93B7
:101B50008F939F93AF93BF93EF93FF93E09106030F
:101B6000F09107031995FF91EF91BF91AF919F916C
:101B70008F917F916F915F914F913F912F910F9036
:101B80000BBE0F900FBE0F901F901895CF93DF9351
:101B9000EB0188819981A6E8B3E011969C938E931E
:101BA0002A813B810697EC01E881F981EA57FC4FD5
:101BB0003183208312961D921D921D921C921597BF
:101BC00081E290E0948383838CE893E0948B838B11
:101BD0001582158ADF91CF910895CF93DF93C6E8E0
:101BE000D3E081E290E09C8F8B8F1D8E1E8E1F8E26
:101BF00086E090E0A0E0B0E088A399A3AAA3BBA3ED
:101C00001CA21DA21EA21FA286E592E0998F888FBA
:101C100080E288A71AA619A61DA68CE893E09CA7C7
:101C20008BA7AC0164EA72E0CE010E94C60D80EB86
:101C300092E0998388838AEB92E0998F888F1A8645
:101C400019861C861B861E861D86188A1F861A8A80
:101C5000198A1C8A1B8A8EE592E09F838E8384EB0F
:101C600093E09F8B8E8B88E08D8BDF91CF910895D1
:101C7000DB018D919C9111979093520480935104B4
:101C800012962D913C910697DC01ED91FC91EF5A53
:101C9000FB4F3183208381E290E09483838383E54B
:101CA00094E0948B838B1582158A0895CF93DF93EC
:101CB000C1E5D4E081E290E0988F8F8B198E1A8E67
:101CC0001B8E86E090E0A0E0B0E08C8F9D8FAE8F01
:101CD000BF8F18A219A21AA21BA286E592E09D8BC3
:101CE0008C8B80E28CA31EA21DA219A683E594E032
:101CF00098A78FA3AC0160EC72E0CE010E94380E71
:101D00008CEC92E09983888386ED92E09D8B8C8B9E
:101D10001E821D8218861F821A8619861C861B86C3
:101D20001E861D86188A1F868EE592E09B838A8315
:101D300084EB93E09B8B8A8B80E1898BDF91CF9141
:101D40000895CF92DF92EF92FF920F931F93CF935C
:101D5000DF931092B7031092B60388EE93E0A0E0F1
:101D6000B0E08093B8039093B903A093BA03B09303
:101D7000BB038EED92E09093B5038093B40385ECA2
:101D800090E09093C1038093C00384EC90E0909323
:101D9000C3038093C20380EC90E09093C5038093CB
:101DA000C40381EC90E09093C7038093C60382EC58
:101DB00090E09093C9038093C80386EC90E09093E1
:101DC000CB038093CA031092CD031092CE031092DE
:101DD000CF031092D00364EB73E081E594E00E949E
:101DE000560E64EB73E086E893E00E94ED0D1092CE
:101DF00085031092840384EB93E090938303809394
:101E0000820365ED71E080EB91E00E946313909393
:101E100085038093840387E190E00E94CA138C01BC
:101E200080E093E0D8018D939C9380E190E00E9444
:101E3000CA13EC0188EF92E09983888380E091E0F7
:101E40009B838A830E94CA139D838C8380E091E0E8
:101E50000E94CA139F838E8381E090E00E94CA1380
:101E60009F878E8781E090E09D878C87F801D787D8
:101E7000C68710937E0400937D0489E190E00E9460
:101E8000CA13EC0180EF92E09983888388E090E0A8
:101E90009D838C831F821E8288E390E00E94CA1378
:101EA0009B838A8386E090E0988B8F8784E290E022
:101EB0000E94CA136C018987DA8684E290E00E944E
:101EC000CA137C018B87FC8684E290E00E94CA13CF
:101ED0009C8B8B8B8CE090E00E94CA138C018D8BC5
:101EE0001E8B8CE090E00E94CA138F8B988FF601B6
:101EF000B701A8019C01C601849611821082138249
:101F0000128215821482DB0111961C921E92139686
:101F10001C921E92129715961C921E921497DA012B
:101F20001D921D92AD01D9011D921D929D01369603
:101F30006A5F7F4FE817F90701F7D0937C04C093DD
:101F40007B04DF91CF911F910F91FF90EF90DF9075
:101F5000CF900895CF93DF93CDB7DEB7E2970FB65A
:101F6000F894DEBF0FBECDBF789484B5826084BD87
:101F700084B5816084BD85B5826085BD85B581608D
:101F800085BD80916E00816080936E00109281000B
:101F900080918100826080938100809181008160C6
:101FA0008093810080918000816080938000809187
:101FB000B10084608093B1008091B0008160809313
:101FC000B000809191008260809391008091910097
:101FD0008160809391008091900081608093900057
:101FE0008091A10082608093A1008091A100816016
:101FF0008093A1008091A00081608093A0008091D7
:102000002101826080932101809121018160809370
:1020100021018091200181608093200180917A00CC
:10202000846080937A0080917A00826080937A0045
:1020300080917A00816080937A0080917A00806834
:1020400080937A001092C100E091C403F091C5031F
:1020500082E08083E091C003F091C1031082E0919F
:10206000C203F091C30390E190831092CC03E091FE
:10207000C803F091C90386E08083E091C603F09124
:10208000C703808180618083E091C603F091C7031C
:10209000808188608083E091C603F091C7038081CE
:1020A00080688083E091C603F091C70380818F7DB3
:1020B0008083909381001092800088EA91E690934B
:1020C00087008093860082E18093810080EC97E016
:1020D000909307038093060381E080936F00009143
:1020E0007B0410917C0482E390E0D80152969C938B
:1020F0008E935197E0907D04F0907E0486E090E00E
:10210000F701938382839187808784E290E00E9425
:10211000CA136C01D70114968C9314971596DC9210
:1021200084E290E00E94CA13F70182879387F60148
:10213000DC01C601849611821082138212821582FC
:10214000148211961C921E9213961C921E92129744
:1021500015961C921E92149736961696E817F90754
:1021600051F786E390E00E94CA13D70117969C931B
:102170008E93169786E390E00E94CA13F701958725
:10218000848786E390E0918B808B0E94CA13D701ED
:1021900054969C938E93539784E252968C935297C5
:1021A0008AE056968C9386E0E6E0F2E0DE01119636
:1021B00001900D928A95E1F786E0ECE0F2E0DE0115
:1021C000179601900D928A95E1F786E0E2E1F2E040
:1021D000DE011D9601900D928A95E1F786E0E8E117
:1021E000F2E0DE01539601900D928A95E1F786E0C8
:1021F000EEE1F2E0DE01599601900D928A95E1F749
:1022000086E0E4E2F2E0DE015F9601900D928A95AD
:10221000E1F7AE014F5F5F4F70E060E0C8010E94E0
:10222000B105AE01495F5F4F61E070E0C8010E94F7
:10223000B105AE01435F5F4F62E070E0C8010E94EC
:10224000B105AE014D5E5F4F63E070E0C8010E94D2
:10225000B105AE01475E5F4F64E070E0C8010E94C7
:10226000B105AE01415E5F4F65E070E0C8010E94BC
:10227000B105F12CE12CD12CC12CF8018785908976
:10228000C816D90608F50388F489E02DEE0DFF1D68
:1022900080810E94ED01D8015396ED91FC91EE0DE5
:1022A000FF1D82810E94ED01D8015396ED91FC91B2
:1022B000EE0DFF1D84810E94ED01BFEFCB1ADB0AFA
:1022C000E6E0EE0EF11CD9CFF12CE12CD12CC12C83
:1022D000D8011F968D919C915097C816D90684F409
:1022E0005396ED91FC91EE0DFF1D60E080810E9400
:1022F0000C03BFEFCB1ADB0AE6E0EE0EF11CE8CFD1
:10230000789480910403909105030B970CF49EC17F
:1023100000917B0410917C04F801A789B08D90E0B6
:1023200080E030E020E0F801478550892417350728
:1023300028F5B901660F771F45895689460F571F43
:10234000FA01118210827B01EA0EFB1EF801418521
:102350005285480F591F63857485680F791FFA01EC
:1023600040815181FB0160817181461B570BF70150
:10237000518340832F5F3F4F0696D5CFED90FC9061
:102380001197F7FE03C0F194E194F108FD0161E0BB
:1023900070E064177507D0F42191319180819181AB
:1023A00097FF03C0919581959109B82FA92F37FF09
:1023B00003C03195219531092817390714F0BE2D36
:1023C000AF2D6F5F7F4FEB2EFA2EE3CF6624639421
:1023D000712CC7010F2C000CAA0BBB0B8FA798AB5D
:1023E000A9ABBAABE614F70408F4CAC0B12CA12C0F
:1023F000912C812CC301B0E0A0E08BA79CA7ADA7D6
:10240000BEA7D8011F968D919C915097881699066A
:1024100008F0B2C0F401EE0FFF1FFEA3EDA3579624
:10242000ED91FC912DA13EA1E20FF31F608171811E
:10243000072E000C880B990B0E94F8141B012C012D
:102440006BA57CA58DA59EA50E94F6149B01AC01F1
:10245000C201B1010E9433151B012C016FA578A99F
:1024600089A99AA90E94F8149B01AC01C201B1018B
:102470000E94F1150E946316D8015596ED91FC91CA
:1024800056972DA13EA1E20FF31F208131816B01F0
:10249000C21AD30A51964D905C9052975396ED9183
:1024A000FC91EA0DFB1D848161E01C141D040CF0FD
:1024B00060E00E940C03C201880F991F880F991FCA
:1024C000DC011597B8A7AFA3312C212CEE27FF27ED
:1024D000EC19FD09FAA7E9A7C601D7FE02C089A534
:1024E0009AA5D801281639063CF55396ED91FC9132
:1024F000EA0DFB1D61E082810E940C03B2E04B16E5
:10250000510420F08FA198A50197F1F7D8015396B7
:10251000ED91FC91EA0DFB1D60E082810E940C03AD
:10252000B2E04B16510420F08FA198A50197F1F766
:10253000EFEF2E1A3E0AD0CF5596ED91FC915697AB
:102540002DA13EA1E20FF31F808191818C0D9D1D75
:10255000918380831B96ED91FC91EA0DFB1D6081B8
:102560007181C60ED71ED182C0823FEF831A930AB3
:1025700086E0A80EB11C45CF9FEF691A790A32CFC9
:10258000D80116968D919C911797892B09F45EC0FE
:102590001F962D913C9190E080E050E040E02417A0
:1025A000350769F5F80185859685F7E0F89FD00134
:1025B000F99FB00D112470E060E030E020E0421798
:1025C0005307A1F1F801E280F380F701EA0FFB1F46
:1025D0007901EE0CFF1C0190F081E02DEE0DFF1D46
:1025E000E080F180F801C184D284F601E60FF71F84
:1025F000F182E0822F5F3F4F6A5F7F4FE0CFD801CB
:102600001996ED91FC91E80FF91FA081B181F801B5
:1026100063857485FB01E80FF91F6081718106965F
:10262000A617B70799F44F5F5F4FB9CFD801169639
:102630002D913C911797A901415051098417950795
:10264000B0F401961E969C938E931D970E9498035A
:102650006B017C010E9498036C197D098E099F090A
:10266000683E73408105910508F04BCEF3CFF80129
:1026700016861586232B51F3F12CE12CD12CC12C7D
:10268000D80116968D919C911797C816D90670F4AB
:1026900012968D919C918E0D9F1D0E94D306BFEFC7
:1026A000CB1ADB0AE7E0EE0EF11CEACF17961C927C
:1026B0001E921697CBCF86E893E00E94500581E5E5
:1026C00094E00C9498050F931F93CF93DF9300979A
:1026D00059F46115710541F4F0E0E0E0CF01DF91BC
:1026E000CF911F910F9108958B01EC016EE070E086
:1026F00081E090E00E94AE13FC01892B69F380E831
:1027000083830115110571F01387028781E88383A4
:1027100080917F0490918004892B21F4F0938004B0
:10272000E0937F042097D1F2D187C08783818260B4
:1027300083838091810490918204892B79F6F093B0
:102740008204E09381048091830490918404892B16
:1027500029F6F0938404E0938304C0CF0F931F9372
:10276000CF93DF93869F8001879F100D969F100D5A
:102770001124C8010E94CA13EC01009729F0A80196
:1027800070E060E00E94EF14CE01DF91CF911F91C5
:102790000F9108950F931F93CF93DF93823091058C
:1027A00010F482E090E0E0918704F091880430E03A
:1027B00020E0B0E0A0E0309799F42115310509F44C
:1027C0004AC0281B390B24303105D8F58A819B81FA
:1027D0006115710589F1FB0193838283FE0111C0AC
:1027E000408151810281138148175907E0F0481751
:1027F000590799F4109761F012960C93129713965B
:102800001C933296CF01DF91CF911F910F910895C4
:102810000093870410938804F4CF2115310551F0FB
:102820004217530738F0A901DB019A01BD01DF010E
:10283000F801C1CFEF01F9CF90938804809387040A
:10284000CDCFFE01E20FF31F819391932250310906
:1028500039832883D7CF2091850430918604232B98
:1028600041F42091020230910302309386042093B8
:10287000850420910002309101022115310541F4B7
:102880002DB73EB74091040250910502241B350B31
:10289000E0918504F0918604E217F307A0F42E1B63
:1028A0003F0B2817390778F0AC014E5F5F4F2417B4
:1028B000350748F04E0F5F1F509386044093850400
:1028C000819391939FCFF0E0E0E09CCFCF93DF9393
:1028D0000097E9F0FC01329713821282A0918704DD
:1028E000B0918804ED0130E020E01097A1F4208140
:1028F0003181820F931F209185043091860428171F
:10290000390709F061C0F0938604E0938504DF91F4
:10291000CF910895EA01CE17DF07E8F54A815B8180
:102920009E0141155105B1F7E901FB83EA83499105
:102930005991C40FD51FEC17FD0761F48081918177
:102940000296840F951FE901998388838281938180
:102950009B838A83F0E0E0E012968D919C9113971F
:102960000097B9F52D913C911197CD010296820FF8
:10297000931F20918504309186042817390739F672
:10298000309751F51092880410928704B093860412
:10299000A0938504BCCFD383C28340815181840F2F
:1029A000951FC817D90761F44E5F5F4F88819981E1
:1029B000480F591F518340838A819B81938382836F
:1029C0002115310509F0B0CFF0938804E093870416
:1029D0009ECFFD01DC01C0CF13821282D7CFDC0174
:1029E00001C06D9341505040E0F70895E89409C04C
:1029F00097FB3EF490958095709561957F4F8F4F32
:102A00009F4F9923A9F0F92F96E9BB279395F69547
:102A1000879577956795B795F111F8CFFAF4BB0FC5
:102A200011F460FF1BC06F5F7F4F8F4F9F4F16C029
:102A3000882311F096E911C0772321F09EE8872FB3
:102A4000762F05C0662371F096E8862F70E060E06F
:102A50002AF09A95660F771F881FDAF7880F9695E8
:102A6000879597F908950E9446150C94B7150E9412
:102A7000A91538F00E94B01520F0952311F00C94A0
:102A8000A0150C94A61511240C94EB150E94C815E2
:102A900070F3959FC1F3950F50E0551F629FF001B1
:102AA000729FBB27F00DB11D639FAA27F00DB11DCA
:102AB000AA1F649F6627B00DA11D661F829F222753
:102AC000B00DA11D621F739FB00DA11D621F839FDA
:102AD000A00D611D221F749F3327A00D611D231FB0
:102AE000849F600D211D822F762F6A2F11249F57FE
:102AF00050409AF0F1F088234AF0EE0FFF1FBB1F01
:102B0000661F771F881F91505040A9F79E3F5105BF
:102B100080F00C94A0150C94EB155F3FE4F3983E05
:102B2000D4F3869577956795B795F795E7959F5F69
:102B3000C1F7FE2B880F911D9695879597F90895FB
:102B400097F99F6780E870E060E008959FEF80EC60
:102B5000089500240A941616170618060906089503
:102B600000240A9412161306140605060895092E69
:102B70000394000C11F4882352F0BB0F40F4BF2BD8
:102B800011F460FF04C06F5F7F4F8F4F9F4F089518
:102B900057FD9058440F551F59F05F3F71F047950E
:102BA000880F97FB991F61F09F3F79F087950895F3
:102BB000121613061406551FF2CF4695F1DF08C012
:102BC000161617061806991FF1CF8695710561052F
:102BD00008940895E894BB2766277727CB0197F9D7
:102BE00008950E9405160C94B7150E94B01558F070
:102BF0000E94A91540F029F45F3F29F00C94A0151C
:102C000051110C94EB150C94A6150E94C81568F38D
:102C10009923B1F3552391F3951B550BBB27AA2795
:102C200062177307840738F09F5F5F4F220F331FCF
:102C3000441FAA1FA9F335D00E2E3AF0E0E832D097
:102C400091505040E695001CCAF72BD0FE2F29D09A
:102C5000660F771F881FBB1F261737074807AB076C
:102C6000B0E809F0BB0B802DBF01FF2793585F4FE1
:102C70003AF09E3F510578F00C94A0150C94EB159A
:102C80005F3FE4F3983ED4F3869577956795B795C3
:102C9000F7959F5FC9F7880F911D9695879597F9CE
:102CA0000895E1E0660F771F881FBB1F6217730747
:102CB0008407BA0720F0621B730B840BBA0BEE1F5C
:102CC00088F7E09508950E946A166894B1110C94F3
:102CD000EB1508950E94D01588F09F5798F0B92FF2
:102CE0009927B751B0F0E1F0660F771F881F991F41
:102CF0001AF0BA95C9F714C0B13091F00E94EA15E4
:102D0000B1E008950C94EA15672F782F8827B85FF3
:102D100039F0B93FCCF3869577956795B395D9F798
:102D20003EF490958095709561957F4F8F4F9F4FA2
:102D30000895EE0FFF1F881F8BBF0790F691E02DBF
:102D40001994FB01DC0102C001900D9241505040EA
:102D5000D8F7089511E0CCE7D1E000E006C0802F5D
:102D6000FE010E9499162196011DCD37D10780E002
:082D70000807A9F7F894FFCF52
:102D780000008904800020002700250020002B0087
:102D8800290020002F002D003E002E0030003800C2
:102D98003C003D0026003600370018000000000007
:102DA80000000000E8FFE8FF000000000000140039
:102DB8000000000000000000ECFFECFF0000000035
:102DC800000000000000AF058D0600000000670548
:102DD8007F061E051B051805150537040A05CF04CF
:102DE800B6049D04BD035E043A040200000000001E
:102DF8007A058106FEFFFEFF0000680583060600CF
:102E08000000000032057306FAFFFAFF00002005F3
:102E18007506B00230023A02BA021800000000003B
:102E280050055D06E8FFE8FF00005D056706CC0277
:102E380044024E02D602140000000000980549061C
:102E4800ECFFECFF0000A5055306000000009F0200
:102E580013024002EC0271024F02630200000000FC
:102E6800D80641070000000091069D0600000000FA
:042E7800A706C906DA
:00000001FF
